:020000040800F2
:10000000681D0224A50400085B860008577E0008CE
:10001000598600085B2A0008159C000800000000B3
:10002000000000000000000000000000E5030008E0
:10003000D12E00080000000041040008A588000837
:10004000C3040008C3040008C3040008C304000874
:10005000C3040008C3040008C3040008C304000864
:10006000C3040008C3040008C30400085D2A000894
:10007000692A0008752A0008812A00088D2A0008CC
:10008000C3040008C3040008DD230008C3040008FB
:10009000C3040008C3040008C3040008C304000824
:1000A000C3040008C3040008C3040008C304000814
:1000B000C3040008C3040008C3040008C304000804
:1000C000C3040008C3040008C3040008C3040008F4
:1000D000C3040008FD9B0008099C0008C304000835
:1000E000C3040008C304000800000000C3040008A3
:1000F000C3040008C3040008C3040008C3040008C4
:10010000C3040008C3040008C3040008C3040008B3
:10011000C3040008C3040008C3040008C3040008A3
:10012000C3040008C3040008C3040008C304000893
:10013000C3040008C3040008C3040008C304000883
:1001400000000000000000000000000000000000AF
:10015000C3040008C3040008C3040008C304000863
:10016000C3040008C3040008C3040008C304000853
:10017000C3040008C3040008C30400080000000012
:10018000C3040008C3040008C3040008C304000833
:10019000C3040008C3040008C3040008C304000823
:1001A000C3040008C3040008C3040008C304000813
:1001B000C3040008C3040008C3040008C304000803
:1001C000C3040008C3040008C3040008C3040008F3
:1001D000C3040008C3040008C3040008C3040008E3
:1001E000C3040008C3040008C3040008C3040008D3
:1001F000C3040008C3040008C3040008C3040008C3
:10020000C3040008C3040008C3040008C3040008B2
:10021000C3040008C3040008618A0008C30400087E
:10022000C3040008C3040008C30400080000000061
:10023000C3040008C304000800000000C304000851
:10024000C3040008C3040008C3040008C304000872
:10025000C3040008C3040008C3040008C304000862
:10026000C3040008C3040008C3040008C304000852
:10027000C3040008C3040008C30400080000000011
:10028000C3040008C3040008C30400080000000001
:1002900000000000C304000800F002F800F092F82B
:1002A0000AA090E8000C82448344AAF10107DA45D1
:1002B00001D100F087F8AFF2090EBAE80F0013F091
:1002C000010F18BFFB1A43F00103184770DB000051
:1002D00090DB0000103A24BF78C878C1FAD85207E2
:1002E00024BF30C830C144BF04680C6070470000B0
:1002F0000023002400250026103A28BF78C1FBD82F
:10030000520728BF30C148BF0B6070476E2900F00C
:100310000B84702900F06B8566290DF0E683652952
:100320000DF0E38367290DF0E08361290DF0DF8391
:1003300003681B0A28BF41F08001692900F0AE81E3
:10034000642900F0AB81752900F0A8816F2900F0C5
:10035000F884782900F03785E92900F09384E429AE
:1003600000F09084F52900F08D84EF2900F0F584E9
:10037000F82900F036850368DB0928BF41F08001C9
:10038000632900F01484732900F01984E32901F033
:100390003B81F32901F04081002070471FB50DF02B
:1003A0009FFB01F08FF90400002000210DF082FB7B
:1003B000401C6060002000210DF066FBE0601FBD66
:1003C00010B510BD01F050F91146FFF7E7FF0AF034
:1003D000BFFF01F02DFA03B4FFF7F2FF03BC01F0F9
:1003E00065FA00002C4B19680868B0E8F04F80F3FC
:1003F0000988BFF36F8F4FF0000080F311887047BA
:100400000000000008480068006880F308884FF08A
:10041000000080F3148862B661B6BFF34F8FBFF35C
:100420006F8F00DF00BF00BF08ED00E0DFF80C00B9
:10043000016841F470010160704700BF88ED00E081
:10044000EFF30980BFF36F8F134B1A681EF0100F84
:1004500008BF20ED108A20E9F04F106009B44FF07A
:10046000500080F31188BFF34F8FBFF36F8F0CF0F4
:1004700071FA4FF0000080F3118809BC1968086810
:10048000B0E8F04F1EF0100F08BFB0EC108A80F3F8
:100490000988BFF36F8F704718000024EFF30580C1
:1004A000704700000A4880470A4880470A480047CA
:1004B000FEE7FEE7FEE7FEE7FEE7FEE7FEE7FEE714
:1004C000FEE7FEE705480649064A074B704700006D
:1004D000D92E0008698900089902000868170224CB
:1004E000681D0224681902246819022453EA020CC8
:1004F00000F069802DE9F04B4FF00006002B1FBF84
:10050000B3FA83F503FA05F424FA05F65E4012BF48
:100510001643B2FA82F502FA05F4C5F120051EBFB2
:1005200022FA05FC44EA0C04203556EA044C4FEA52
:10053000144418BF641C4FF000084FF000099042AB
:1005400071EB030C39D3002919BFB1FA81F701FA15
:1005500007F6B0FA80F700FA07F6C7F120071EBFCA
:1005600020FA07FC46EA0C062037B6FBF4FCA7EBA2
:100570000507103F07F01F0BCBF120060CFA0BFB11
:100580002CFA06F644BFB3460026202FA4BF5E46D1
:100590004FF0000B5BEA060C08BF4FF0010B19EBA4
:1005A0000B09ABFB027C48EB0608C01B06FB02CC28
:1005B0000BFB03CC71EB0C01C1E70B460246414635
:1005C0004846BDE8F08B13B54FF000004FF0000136
:1005D000AFF30080BDE81C40704700007CB51D46AD
:1005E00016460C00009001D02044401E074B7B446F
:1005F0002A4669460190304600F0AFFA05461CB124
:100600000020694600F0BCFA28467CBD9905000030
:100610000FB47CB50C0009AA009001D02044401E04
:10062000084B7B4469460190089800F096FA05460D
:100630001CB10020694600F0A3FA28467CBC5DF896
:1006400014FB00006505000070B50C460546012A44
:1006500005D02878800600D5EA69002302E001234E
:1006600005E05B1C934202D2E05C0028F9D1A86946
:10067000E618C01AA861286A18442862284600F0C3
:10068000C1F904E0D5E9012114F8010B9047B44207
:10069000F8D3284600F0CCF970BD00002DE9F041F8
:1006A0000646002410687529314616A510D000F0C2
:1006B000D0F9002802DA404213A507E031688A0722
:1006C00001D512A502E0490704D511A5012401E0D6
:1006D00000F0C8F900210A2206F1240709E0B0FB66
:1006E000F2FCB0FBF2F302FB1C00303078541846E9
:1006F000491C0028F3D123462A463046BDE8F04184
:1007000000F0B9B9000000002D0000002B0000002F
:10071000200000002DE9F05F894604464FF0000AF2
:10072000DFF874B1FB44C0F820A02046E168884798
:10073000002874D0252806D0D4E901219047206AEA
:10074000401C2062F1E700265F462046E1688847AA
:100750002028054607DB312D05D2781910F8200C2A
:1007600008B10643F1E7B00701D526F00406C4F846
:100770001CA00027C4F818A02A2D09D0284609F08B
:100780007BFF38B304EB8708303DC8F8185019E0F8
:1007900059F8041B204604EB87029161E168884701
:1007A000012F054618D1E069002820DA26F020063E
:1007B0001DE0D8F8180000EB800005EB4000303851
:1007C000C8F818002046E1688847054609F054FF3C
:1007D0000028EED1012F0AD02E2D08D12046E16845
:1007E00088477F1C0546022F46F02006C4DBA0691F
:1007F000002803DA404246F00106A061F00701D06C
:1008000026F010066C2D0BD0682D09D04C2D39D058
:100810006A2D35D0742D35D07A2D33D016E038E0DE
:10082000E1682F4620468847B842054609D16C2F1B
:1008300026D04FF48060E16806432046884705468D
:1008400004E06C2F1AD04FF4807006430DB3A5F16D
:100850004100192802D8203546F400664A46294648
:10086000204626604E46FFF751FD80B101280BD08F
:10087000F61D26F0070000F1080956E74020E4E7DE
:100880008020D8E70020D6E706F104094DE7284686
:1008900052E7206ABDE8F09F84D50000032A40F2A9
:1008A000308010F0030C00F0158011F8013BBCF112
:1008B000020F624498BF11F801CB00F8013B38BF2A
:1008C00011F8013BA2F1040298BF00F801CB38BF38
:1008D00000F8013B11F0030300F02580083AC0F056
:1008E000088051F8043B083A51F804CBA0E80810FE
:1008F000F5E7121D5CBF51F8043B40F8043BAFF331
:100900000080D20724BF11F8013B11F801CB48BF8A
:1009100011F8012B24BF00F8013B00F801CB48BFC0
:1009200000F8012B704710B5203AC0F00B80B1E8F9
:100930001850203AA0E81850B1E81850A0E8185014
:10094000BFF4F5AF5FEA027C24BFB1E81850A0E81D
:10095000185044BF18C918C0BDE810405FEA827C37
:1009600024BF51F8043B40F8043B08BF7047D2074E
:1009700028BF31F8023B48BF11F8012B28BF20F8EF
:10098000023B48BF00F8012B704702F0FF0343EA27
:10099000032242EA024200F037BA4FF0000200B5EB
:1009A000134694469646203922BFA0E80C50A0E892
:1009B0000C50B1F12001BFF4F7AF090728BFA0E840
:1009C0000C5048BF0CC05DF804EB890028BF40F80C
:1009D000042B08BF704748BF20F8022B11F0804F4E
:1009E00018BF00F8012B704770477047704710B56B
:1009F00000F02AFA006810BD10B5044600F024FA91
:100A0000046010BD70B5044685690068C10601D553
:100A1000302600E02026C00707D070BDD4E90121B0
:100A200030469047206A401C20626D1EF6D570BD8E
:100A300070B5044685690078C00707D170BDD4E958
:100A4000012120209047206A401C20626D1EF6D5AF
:100A500070BD09684A0501D540B27047C905FCD58B
:100A600000B2704709684A0501D5C0B27047C90590
:100A7000FCD580B270472DE9F0470D469946924665
:100A8000044600F124080168880604D5E06921F0D5
:100A90001001216000E00120A84201DD471B00E0B9
:100AA0000027A1697A1902EB0900081AA0612078D1
:100AB000C00602D42046FFF7A5FF002608E0D4E9CF
:100AC00001211AF806009047206A401C761C20621B
:100AD0004E45F4DB2078C0060AD52046FFF792FF8A
:100AE00006E0D4E9012130209047206A401C2062B2
:100AF000381EA7F10107F4DC07E0D4E9012118F85A
:100B000005009047206A401C2062281EA5F10105BF
:100B1000F3DC2046FFF78CFF2078000602D5022088
:100B2000BDE8F0870120FBE711680268006A530501
:100B300001D508700AE0D30501D5088006E0130648
:100B400003D5C217C1E9000200E008600120704728
:100B500001694A1C02610878704700B58FB0CDE981
:100B600001310021059105497944CDE90310114671
:100B70006846FFF7CFFD0FB000BD0000E5FFFFFFA7
:100B80000A6802F8010B0A607047D1E900239A4213
:100B900002D2531C0B601070704710B5436913B13B
:100BA000AFF3008001E0FFF74FFD012010BD127888
:100BB00000F124010A7000224A700122EDE7116859
:100BC0004FF0FF32E9E700002DE9FF5F15468A4646
:100BD0000446DFF8AC80F8440027D8E900103E4610
:100BE000CDE9001010E03AF816106A4602A800F0AD
:100BF00017FD411C07D02178890603D5E269391811
:100C000091420DD80744761C2078800602D5E06911
:100C1000B84205DDAE42E6DB3AF816000028E2D124
:100C2000A069C01BA0612046FFF7ECFED8E90010C8
:100C3000CDE90010002017E03AF818106A4602A823
:100C400000F0EEFCB0F1FF3F81460BD000250DF126
:100C5000080B05E0D4E901211BF8050090476D1C45
:100C60004D45F7D308F10100B0428046E4DB206A2D
:100C7000384420622046FFF7DBFEBDE8FF9F0000FE
:100C8000E6D000002DE9F0418046D21D22F0070297
:100C90000025D2E90002F52915A614D0011E72F133
:100CA000000106DA0023D0EB030063EB020211A679
:100CB00008E0D8F800108B0701D50FA602E049071D
:100CC00001D50EA601251146002408F1240704E0F1
:100CD00000F0BEF830323A55641C50EA0102F7D1F8
:100CE0002B46324621464046BDE8F041FFF7C3BEE1
:100CF000000000002D0000002B000000200000007C
:100D000030B4002100F1240408E002F00705D20805
:100D1000303542EA4372DB086554491C52EA030548
:100D2000F3D10468002310A2250707D5A40600D438
:100D300021B1C46901230DA2641EC46130BCFFF758
:100D40009ABE10B5044621461068FFF78BFE024696
:100D50002046BDE810400023D2E7D21D22F0070153
:100D6000D1E90023CCE700000000000030000000C3
:100D7000F0B40D460188090502D5214C7C4402E0FF
:100D80001F4C7C440E34002100F1240608E002F0E0
:100D90000F071209E75D42EA03721B097754491CE9
:100DA00052EA0307F3D102780023120704D5702D0D
:100DB00006D009B1022311342246F0BCFFF75BBE16
:100DC00001231034F8E770B504460D46214610683B
:100DD000FFF748FE024629462046BDE87040002342
:100DE000C6E7D21D22F00703D3E90023C0E703685A
:100DF000126843F0200303600823C3610023B7E7B0
:100E000048CF00004FF000020429C0F0128010F01B
:100E1000030C3FF4C4ADCCF1040CBCF1020F18BFBD
:100E200000F8012BA8BF20F8022BA1EB0C01FFF763
:100E3000B6BD5FEAC17C24BF00F8012B00F8012B8E
:100E400048BF00F8012B7047004870470417022480
:100E500030B5B0F10A024FEA900E71F100034EEA8C
:100E6000817EB0EB0E0061EB91014FEA101E4EEA5D
:100E7000017E10EB0E0041EB11114FEA102E4EEAED
:100E8000016E10EB0E0041EB11214FEA104E4EEABD
:100E9000014E10EB0E0041EB1141401841F10001F1
:100EA0004FEAD00040EA41704FEAD10110EB8005D3
:100EB0004FEA810444EA907444EB01046D1944EB59
:100EC0000404521BA3414FF0000348BF0A3200D56F
:100ED00030BD401C41F1000130BD70472DE9FF4F8E
:100EE0000C461E464FF0FF378BB0D2E90001DDF80B
:100EF00060800A908A46C1F30A5505B93D46002133
:100F000008464FF00000BAF1000F00F4400005DA87
:100F100000EB80004FF4400101EA50004FEA905985
:100F2000B9F1010F00DDB9460A9850EA4A000ED027
:100F300044F61050A5F2FF3545432F14B8F1000FC9
:100F40001ED07542291E1EDDC9F100021CE0B8F159
:100F5000010F4FF0000001D0302103E0F24305E023
:100F60002154401CB042FBDB3046002200212154BA
:100F70000B99C1F80880C1E900200FB0BDE8F08FDF
:100F8000BD1B6D1CDEE74A4600DA694206A800F088
:100F9000DDFB06AB93E8070003AB83E80700504690
:100FA0000A9900F08AFC8DE80700A0F500501F3870
:100FB00000900398002D0ADD42F21F014A460844C2
:100FC000002303A90390684600F0F3FE09E0A0F5B2
:100FD00000504A461F38002303A90390684600F0DA
:100FE000FDFE8DE807000004000C03D04FF0FF3039
:100FF000410800E01046B8F1000F03D00022009233
:1010000015461EE0751E05D4FFF722FF30326255EB
:101010006D1EF9D5B3460122084302D000227F1C81
:1010200004E02078302801D100227F1E002A099791
:1010300084D01DE0112D07DAFFF70AFF3032625528
:101040006D1C50EA0102F5D1084302D00098C8B1E6
:101050000EE00021681E05E0235C625C63542254AC
:10106000401E491C8142F7DBAB46A81B401E09907D
:10107000002004F80B000B98099AC0F80880C0E91A
:10108000002B7AE711264FF0000857E72DE9F04FC3
:1010900088460446D21D22F0070191B0D1E9000133
:1010A000CDE90A0108F0B7FD02460B98C00F01D048
:1010B0002D2007E02068810701D52B2002E02021A8
:1010C00001EAC000032A099001D0072A05DB034684
:1010D0004146204600F0FAFA0BE12078800601D55F
:1010E000E06900E00620B8F1650F814606D0B8F14E
:1010F000660F18D0B8F1670F70D131E00020B9F158
:10110000110F009001DB112301E009F101030AAA8C
:1011100001A90CA8FFF7E2FEDDE90C70002609F139
:101120000105834647E001204B4600904FF0004701
:101130000AAA01A90CA8FFF7D1FEDDE90DB00C99B0
:101140005D46002610B909F101000D18B9EB050044
:1011500003D4C0F1FF3609F10105A5EB09002BE02E
:10116000B9F1010F01DA4FF001090020B9F1110FB7
:101170000090484601DD112300E003460AAA01A9B8
:101180000CA8FFF7ABFEDDE90C704D460026834648
:10119000207800070AD4AB4500DA5D4601A8012D8E
:1011A00004DD411911F8011C302907D04F4502DA3E
:1011B00017F1040F04DA012082460FE06D1EEEE7FE
:1011C000002F02DCED1B3E4403E0781CA84200DD4A
:1011D0007D1CB81B00F1010A4FF000472078000782
:1011E00003D4AA4501DB4FF0FF3A0021B7F1004FCD
:1011F0000DF143088DF8431024D002202B23002F3B
:1012000001DA7F422D230A21021EA0F1010000DC39
:101210005FB197FBF1FC97FBF1F201FB1C7C1746D9
:101220000CF1300C08F801CDEEE7A8F101000370D5
:101230002188090501D5452100E06521A0F10108BB
:1012400000F8011C09980FA9A1EB0807FF1D00B1C8
:101250000120411901EBEA70A1693844081A401EC7
:10126000A0612078C00602D42046FFF7CBFB099886
:1012700028B1D4E901219047206A401C20622078DF
:10128000C00622D52046FFF7BDFB1EE0002E04DB82
:10129000B34502DD01A8805D00E03020D4E90121E2
:1012A0009047206A401C2062761CAAF101005FEA88
:1012B000000A0AD100F006FAC0680168405CD4E96F
:1012C00001219047206A401C2062281EA5F10105DB
:1012D000DCDC07E0D4E9012118F8010B9047206A13
:1012E000401C2062381EA7F10107F3DC2046FFF7FF
:1012F0009FFB032011B041E62DE9F04F04460D4657
:10130000D21D22F0070089B0D0E90097484639463F
:1013100008F081FC0246F80F01D02D2307E0206879
:10132000810701D52B2302E0202101EAC0038DF8BB
:1013300020300BB1012000E00020032A824601D0BA
:10134000072A04DB2946204600F0C0F93FE1207857
:10135000800601D40D2500E0E569C7F30A560D2D7E
:1013600049DA00214FEA175B08464FF00000002FD2
:1013700000F4400007DA00EB80004FF4400100EB7E
:10138000D07001EA60008115012901DD4FF0FF31C5
:1013900000224FEA850CBCF1180F06D31346ACF1BE
:1013A00018004FF08052C24003E04FF4801323FA3C
:1013B0000CF30CF10C0CBCF1200F04D3ACF1200C9D
:1013C00009FA0CF001E007FA0CF000294FF0004890
:1013D00001DD18B90FE00ED140450CD319EB02091D
:1013E0005F4121B9404502D19F4329EA0209BBEB85
:1013F000175F00D0761C2088000502D57B48784412
:1014000002E07A487844193808AA302302F80A30F2
:10141000037C0AF10101002E0AF1020A53546A46C4
:1014200002DC4FF0300101E04FF031014FF00108D4
:101430008DF8001002D0A6F2FF3603E059EA47010A
:1014400000D06B4E002D02DC2178090704D54FF047
:1014500002082E218DF80110C44600210BE0C7F3CD
:1014600003433F01C35C491C6D1E02F80830052987
:1014700008F1010801DA002DF1DC00210CE000EB9D
:101480001973491C1B786D1E082902F808304FEAB1
:10149000091908F1010801DA002DF0DC21688B063A
:1014A00002D516E0A8F10108E04505DD02EB0803CE
:1014B00013F8013C302BF5D0B8F1000F09DD02EB39
:1014C000080313F8013C2E2B03D1090701D4A8F11E
:1014D0000108002D05DD3E2102F808106D1E08F1FF
:1014E0000108407C002E02F8080008F1010804DA27
:1014F0002D20764202F8080002E02B2002F80800B6
:101500000A214FF47A70864208F101080BDB96FB42
:10151000F0F3303302F8083096FBF0F308F10108DD
:1015200000FB136601E0642E0CDB642096FBF0F3F5
:10153000303302F8083096FBF0F308F1010800FBA5
:10154000136601E00A2E06DB96FBF1F0303002F85C
:10155000080008F1010896FBF1F001FB1060303043
:1015600002F80800A16908F1010808EB050202EB86
:101570000A00081AA0612078C00602D42046FFF7AE
:1015800041FA216A08AE01EB0A00206204E0D4E9C6
:10159000012116F8010B9047BAF1010AF7D2207821
:1015A000C00602D52046FFF72DFA6E4609E016F870
:1015B000010B3E280FD0D4E901219047206A401C3E
:1015C0002062B8F10108F2D22046FFF731FA09B0E3
:1015D0000320BDE8F08F206A2844206203E0D4E9AC
:1015E0000121302090476D1EEBD3F8E721C90000A0
:1015F00002FCFFFF10B5436913B1AFF3008001E0B7
:10160000FFF7E2FA012010BD128800F12401828464
:101610000022C2840122EDE711684FF0FF32E9E7B2
:1016200070B516460C46054600F044F8036893F87A
:101630000101012806D0FF2C0FD8185D68B10120E8
:101640002C7070BDD3F807013246214603F2071310
:1016500003442846BDE8704018474FF0FF3070BD86
:1016600000487047041702247546FFF7F9FFAE469D
:1016700005006946534620F00700854618B020B59E
:10168000FEF720FFBDE820404FF000064FF00007B6
:101690004FF000084FF0000B21F00701AC46ACE81A
:1016A000C009ACE8C009ACE8C009ACE8C0098D4687
:1016B0007047000010B500F005F8001D10BD00BF18
:1016C000F5C3000000487047241702242DE9F041BB
:1016D0001F46044603260168072A01F4006004DB64
:1016E00008B116A505E016A503E008B115A500E0B0
:1016F00015A521F010002060A069C01EA0610FB1E7
:10170000401EA0612046FFF77DF94FB1D4E90121C9
:1017100038469047206A401C2062C01C206206E0C8
:10172000206AFAE7D4E9012115F8010B9047761EEB
:10173000F8D22046FFF77CF9BDE8F0814E414E001B
:101740006E616E00494E4600696E66002DE9F047F5
:10175000814616468AB0354878440DC88DE80D009C
:1017600032487844801C03AC0DC884E80D0041F673
:101770009B300844372190FBF1F290FBF1F5A5F185
:10178000800501FB12041B3C02D56442012000E0ED
:101790000020DFF898A080460027FA44AAF1BE0A8C
:1017A0000EE0E0070AD03246684607EB4701012306
:1017B0000AEB810100F012FB8DE8070064107F1C2A
:1017C000002CEED1194F7F44AE3F19E0E80715D049
:1017D00007EB04100DF1180A90E80E008AE80E00DD
:1017E000C068F04201D1981908903246012306A939
:1017F00003A800F0F3FA03AB83E807006D10641C44
:10180000002DE3D14FF0010332466946B8F1000FD5
:1018100003A802D000F0CDFA01E000F0DFFAC9E938
:101820000001C9F808200AB0BDE8F08758C60000DA
:1018300010B50446AFF300802046BDE81040FEF727
:10184000CABD00004FF0013C50F8042B51F8043B96
:101850009A4215D1A2EB0C03934313EACC130BD19C
:1018600050F8042B51F8043B9A4209D1A2EB0C0327
:10187000934313EACC13E7D04FF00000704700BF4A
:10188000D01A01BAB1FA81F101F0180122FA01F07F
:10189000CB40C1F12001DBB2C0B2C01A2CFA01F377
:1018A000D11A914311EAC311E6D1704701491820BA
:1018B000ABBEFEE72600020070475FEA400C08BF9F
:1018C00091F0000F4FEA8C234FEAC12243EA5151B5
:1018D0004FEA1C5018BF00F5F0404FEA300018BF27
:1018E00041F000415FEA6C5C00F02980BCF1FF3FF1
:1018F00008BF40F080407047130C06BF12044FF041
:10190000100C4FF0000C130E04BF12020CF1080C67
:10191000130F04BF12010CF1040C930F04BF9200CB
:101920000CF1020CD30F04BF52000CF1010C114654
:101930004FF00002A0F11F00A0EB0C00704711F067
:10194000004F08BF704731F000413FF4D5AF0B0C9A
:1019500006BF09044FF0100C4FF0000C0B0E04BF33
:1019600009020CF1080C0B0F04BF09010CF1040C67
:101970008B0F04BF89000CF1020CCB0F04BF490090
:101980000CF1010CCCF12003A0EB0C0022FA03F3C4
:1019900002FA0CF241EA030100F10100704720F065
:1019A0007F4C80EA030023F07F47ACEB070303F58D
:1019B0007C5300F0004003F1FF032DE980494FEA1A
:1019C000154B09B44FEA144325EA0B4E24EA0348A9
:1019D0000FF2042606EB132749083E785FEA32022D
:1019E00003FB0667C7F5000707FB06F64FEA543707
:1019F0004FEAD64606F1020607FB066CCCF1005C06
:101A00004FEA1C472CEA074C07FB06F40CFB06F5D3
:101A100004EB15464FEA961634BF00204FF0004005
:101A20004FEAD13706FB07FC4FEA1C4C0CFB0BF7C7
:101A3000D21B03FB0CF761EB07010CFB0EF7B0EBBD
:101A4000074072EB17420CFB08F734BFA2EB0742CA
:101A5000B2EB074261EB17414FEA0C444FEA9107A2
:101A600006FB07FC4FEA1C4C0CFB0BF7B0EBC74026
:101A700072EB573203FB0CF734BFA2EBC742B2EB59
:101A8000C74261EB57310CFB0EF7B0EBC70072EBAE
:101A900057720CFB08F734BFA2EBC702B2EBC702C8
:101AA00061EB5771039F4FEA816141EA921104EBA8
:101AB000CC044FEAD1374FEA826206FB07FC42EAC8
:101AC00090124FEA80604FEA1C4C0CFB0BF7D21BC4
:101AD00003FB0CF761EB07010CFB0EF7B0EB0740C3
:101AE00072EB17420CFB08F734BFA2EB0742B2EBD4
:101AF000074261EB17414FEA8C554FEA910704EB1F
:101B00009C2406FB07FC4FEA1C4C0CFB0BF7B0EBCC
:101B1000C74072EB573203FB0CF734BFA2EBC7424E
:101B2000B2EBC74261EB57310CFB0EF7B0EBC700CD
:101B300072EB57720CFB08F734BFA2EBC702B2EB93
:101B4000C70261EB577115EB4C254FEA816141EA01
:101B500092114FEA82624FEAD13742EA901206FBB5
:101B600007FC44F100044FEA80604FEA1C4C0CFB78
:101B70000BF7D21B03FB0CF761EB07010CFB0EF715
:101B8000B0EB074072EB17420CFB08F734BFA2EB37
:101B90000742B2EB074261EB174115EB1C154FEA08
:101BA000813141EA92414FEA823242EA90424FEA61
:101BB00080304FEA0C7644F1000448EA03434EEAD1
:101BC0000B484FF0000EB2EB080C71EB030724BF7B
:101BD000624639464EEB0E0E4FF0000B0018524194
:101BE00049414BEB0B0BB2EB080C71EB03077BF19C
:101BF000000B24BF624639464EEB0E0E4FF0000B31
:101C00000018524149414BEB0B0BB2EB080C71EB46
:101C100003077BF1000B24BF624639464EEB0E0EE4
:101C200051EA020718BF46F0010616EB0E7655F191
:101C3000000254F1000103D5BDE88901BDE8008828
:101C4000BDE88901BDE80048B619524141EB0101E8
:101C5000A3F10103704780807F7E7D7C7B7A797859
:101C6000777676757473727171706F6E6E6D6C6C61
:101C70006B6A6A6968686766666564646363626103
:101C80006160605F5F5E5E5D5D5C5C5B5B5A5A5984
:101C900059585857575656555555545453535252F0
:101CA0005251515050504F4F4F4E4E4D4D4D4C4C48
:101CB0004C4B4B4B4A4A4A49494948484847474791
:101CC00047464646454545444444444343434342CE
:101CD000424242414141002B9C4630D477002BD0F8
:101CE0001CB54FEA370703B44FF010004FF0100156
:101CF000BAF1000F06D0BCF1000FDCBF40F00800C5
:101D000040F008014FF000000FBCBDE810400BF19F
:101D1000010BBBF1010F08BF5FEA170722BF12F1E9
:101D2000010211F101014FF0004143F1000300F005
:101D3000004043EA00007047F9D35708D0E746EA6D
:101D4000064613F1400F4FEA16461FDD13F1200F30
:101D5000DFBF16430A46002120335B42BED0C3F1E9
:101D6000200746EA064602FA07F74FEA164646EA11
:101D70000706C3F1200722FA03F201FA07F721FA56
:101D800003F14FF0000342EA0702A7E746EA020622
:101D900046EA06464FEA164646EA0106BCBF46EA50
:101DA0000646360C4FF000034FF000024FF00001E2
:101DB00094E72DE9804C9A46934670B491E8380038
:101DC00007C831EA400C48BF34EA430C03D5FFF79B
:101DD000E6FDFFF780FFF0BCBDE8008C2DE9804CEC
:101DE0009A46934670B491E8380007C810F0804FC7
:101DF00008BF13F0804F03D100F005F8FFF76BFF29
:101E0000F0BCBDE8008C20F07F4780EA030023F09F
:101E10007F4C07EB0C03A3F57C5300F00040A3F1CB
:101E2000FE0392F0000F00F0B38095F0000F00F079
:101E300077802DE901494FEA11404FEA144621EA23
:101E4000004800FB06FC24EA064708FB06F607FBF1
:101E500008F800FB07F718EB06484CEB164C4FEA66
:101E6000124B18EB07484FEA15464CEB174022EA95
:101E70000B4E0BFB06FC25EA06470EFB06F607FB9E
:101E80000EFE0BFB07F71EEB064E4CEB164C4FF00D
:101E900000061EEB074E4CEB174B18EB0B0840F1FE
:101EA000000018EB0E0B58EB000840F100008F1AF1
:101EB0004FF000013CBFC943661B14BFB5EB040CD7
:101EC00000213CBFC943F61B4FEA17444EEA8E0E71
:101ED00027EA04454FEA1C4704FB07622CEA074C3B
:101EE00005FB07F70CFB05F604FB0CFC16EB07469D
:101EF00042EB174216EB0C4642EB1C421BEB06066C
:101F000058EB0202414146EA9E0601D5BDE801892F
:101F1000B619524141EB0101A3F10103BDE801896A
:101F20004FEA14454FEA114724EA054621EA074CD7
:101F300005FB07F406FB07F70CFB06F105FB0CFCA1
:101F400011EB074144EB17444FEA124711EB0C41E8
:101F500044EB1C4422EA074C05FB07F206FB07F79B
:101F60000CFB06F605FB0CFC16EB074642EB174292
:101F700016EB0C4642EB1C456A1854F1000148BFB1
:101F80007047B619524141EB0101A3F101037047BB
:101F900095F0000F37D04FEA11424FEA144721EA7B
:101FA000024624EA074C02FB07F106FB07F70CFB8D
:101FB00006F402FB0CFC14EB074441EB17414FEA1B
:101FC000154714EB0C4441EB1C4125EA074C02FB7E
:101FD00007F506FB07F70CFB06F602FB0CFC16EBFD
:101FE000074645EB174516EB0C4645EB1C4212190C
:101FF00051F1000148BF7047B619524141EB010150
:10200000A3F1010370474FEA14454FEA114724EA50
:10201000054621EA074C05FB07F106FB07F70CFB19
:1020200006F24FF0000605FB0CFC12EB074241EBF9
:10203000174112EB0C4251EB1C4148BF70479218FC
:1020400041EB0101A3F101037047000070B53A496B
:1020500005460068884202D0384A904202D1D1F841
:10206000080302E03648D0F8080310F4403F11D0CE
:1020700004F030FC04466868B0F5803F06D0B0F547
:10208000003F03D0B0F5403F27D101E0000C18E03D
:10209000A40822E000214FF4002003F085FC044650
:1020A00068688103890B18D181140C2915D2DFE8E7
:1020B00001F0140606060606060B0D0F1113800C20
:1020C0004000B4FBF0F408E0240906E0640904E0F1
:1020D000A40902E0E40900E0240A03F025F841F233
:1020E0000301884208D8174884422868816813D8B9
:1020F00021F48071816070BD13496008884204D862
:102100002868816821F44071F4E71049884206D8B4
:102110002868816821F4407141F48071EAE70C4934
:1021200088422868816804D821F4407141F4007124
:10213000E0E741F44071DDE7002002400021024069
:1021400000600258002D3101105E5F0020BCBE000F
:1021500040787D012DE9F0410027044600680D46D6
:1021600005F0E4FF0646206805F0DCFF30435DD053
:1021700020682F4EC168890105D5617D012902D1F2
:10218000217D01290BD0022D1DD0206805F0CEFF46
:10219000B8B120688168C1F3400169B111E02549F7
:1021A000012502E08F4232D27F1C0268D2435206E0
:1021B000F8D440210160E8E78168314041F0100126
:1021C0008160012D11D0206805F0ACFF48B1206876
:1021D0008168C1F3400121B98168314041F020019B
:1021E0008160022D08D0032D04D0042502F0A2FF47
:1021F000064617E00C25F9E70825F7E702F09AFFF5
:10220000801B05280ED92068806828420AD0606D9E
:1022100040F010006065A06D40F00100A065012055
:10222000BDE8F081206880682842E7D10020F7E708
:10223000C0FFFF7F00DC0C0010B5846B616D11F0F6
:10224000500F06D0616DC90625D5204601F00CF966
:1022500010BD606D40F4007060652068016809077A
:1022600007D505F06BFF90B12068C068800403D5E6
:102270000DE0C06880070AD1606D20F48070606551
:10228000606DC00403D4606D40F0010060652046BD
:1022900001F0DAF810BDE16CC96CBDE810400847E8
:1022A00010B5806B416D41F040014165816D41F099
:1022B0000401816501F0D8F810BD10B5806B01F004
:1022C000D1F810BD70B50446006881688268C1F31A
:1022D000400112F0010F28D039BB816801F00D01D7
:1022E000012914D18168124A1140891C816021683A
:1022F0000320086002F01EFF054612E002F01AFFFC
:10230000401B02280DD920688068C00709D0606D85
:1023100040F010006065A06D40F00100A065012054
:1023200070BD20688068C007E8D1002070BD000043
:10233000C0FFFF7F70B504460068816811F0010F8F
:1023400040D18168204A11422DD18168D54329406E
:10235000491C816002F0EEFE1C49064620681C4BB9
:10236000884201D0984201D11A4A00E01A4A926884
:10237000984202F01F0200D0014681421DD0E2B116
:1023800020E0816811F0010F03D181682940491CC8
:10239000816002F0CFFE801B02280ED92068006801
:1023A000C043C00709D0606D40F010006065A06DAB
:1023B00040F00100A065012070BD20680168C9439C
:1023C000C907DED1002070BD3F0000800020024020
:1023D000002102400023024000630258014801F03E
:1023E00051B80000040100240FB430B59BB005467D
:1023F0001F9800281BD0104C2068002817D0682197
:102400006846FEF7CAFA8DF8005009F07DF810B161
:1024100009F08AF8019060211F9A20AB02A8FEF70C
:10242000DDF8002320681A46694609F011F91BB04F
:1024300030BC5DF814FB0000B000002400F078F917
:102440000348006810B1022109F002F872B6FEE7F5
:10245000980000244FF0FF30704770B504004FF033
:10246000000505D006F018FD28B1A81E256070BD36
:102470004FF0FF3070BD012506F0AAFF10B1281FF4
:10248000256070BD032506F0DBFD10B1E81F256057
:1024900070BD072506F00CFF18B16FF00400256031
:1024A00070BD0F2506F0B8FB18B16FF00500256070
:1024B00070BD1F2506F06CFC18B16FF0060025609A
:1024C00070BD3F202060002070BD0000012209483F
:1024D00010B5D10202F022FE074C00220121204655
:1024E00002F01CFE00222046022102F017FE00200E
:1024F00010BD000000100258000402580020704770
:10250000002070470020704770470020704700008F
:1025100010B58AB03B4924226846FEF704FA002031
:1025200008F080FF384C002268212060102009F05C
:1025300063F8002260601021082009F05DF8002295
:10254000A0608C21042009F057F80022E0608C2163
:10255000042009F051F8002220610821042009F02C
:102560004BF8002260616821102009F045F8002234
:10257000A0610120114609F04DF9E061002009F049
:10258000C4F82062002009F0C0F86062002009F061
:10259000BCF8A062002009F0B8F8E062002009F061
:1025A000B4F820632168E1B16168D1B1A168C1B11B
:1025B000E168B1B12169A1B1616991B1A16981B14C
:1025C000E16971B1216A61B1616A51B1A16A41B138
:1025D000E16A31B128B100F013F928B141F20200EB
:1025E0000CE041F2010009E0084800216A4609F0C8
:1025F0008FF90028606303D141F20300FFF71EFF4B
:102600000AB010BD68DB000898000024B9800008FB
:10261000002070470020704710B5C8B03A49242206
:102620006846FEF780F93849242209A82431FEF7CC
:102630007AF93549242212A84831FEF774F9324953
:1026400024221BA86C31FEF76EF92F49242224A8FE
:102650009031FEF768F92C4924222DA8B431FEF7F9
:1026600062F92949242236A8D831FEF75CF92649B7
:1026700024223FA8FC31FEF756F9244800216A467F
:1026800009F046F9224C002109AAA063214809F06B
:102690003FF9E0630021204812AA09F039F92064CB
:1026A00000211E481BAA09F033F9606400211C4870
:1026B00024AA09F02DF9A06400211A482DAA09F0D6
:1026C00027F9E0640021184836AA09F021F92065AD
:1026D000002116483FAA09F01BF96065A16B79B18A
:1026E000E16B69B1216C59B1616C49B1A16C39B12F
:1026F000E16C29B1216D19B110B1002048B010BDB5
:102700004FF0FF30FAE700008CDB0008958D0008E1
:1027100098000024E9920008358C00085D8F0008BD
:1027200009920008398B0008D58C00084D900008EC
:1027300070B50B4D06462868002810D04FF0FF31C9
:1027400008F0BAFF074CA068401CC4E9020607F075
:102750009AFF20612868BDE8704009F00AB870BD92
:10276000F00000248814022470B5040041D0214DEB
:10277000286800283DD04FF0FF3108F09DFF1E492A
:1027800014222046FEF7CFF81B49C02204F11400A2
:102790001431FEF7C8F81849442204F1D400D431AA
:1027A000FEF7C1F81549182204F58C70FEF7BBF846
:1027B0001249142204F598701831FEF7B4F80F4945
:1027C000202204F5A2702C31FEF7ADF80B49A022AF
:1027D00004F5B2704C31FEF7A6F80849182204F54A
:1027E0000170EC31FEF79FF82868BDE8704008F0F2
:1027F000C0BF70BDF000002488140224A01502247C
:102800001B48142110B5FEF7C8F81948C021143030
:10281000FEF7C3F816484421D430FEF7BEF8154839
:102820001821FEF7BAF8134814211830FEF7B5F84E
:10283000104820212C30FEF7B0F80E48A0214C3073
:10284000FEF7ABF80B481821EC30FEF7A6F8094963
:1028500000204C310870A031087008F056FF06497E
:10286000086008B1002010BD4FF0FF3010BD00001F
:1028700088140224A0150224F000002470B504007E
:1028800011D0094D286800280DD04FF0FF3108F015
:1028900013FF064818222146FEF745F82868BDE8D0
:1028A000704008F066BF70BDF0000024A01502243F
:1028B00070B5040011D0094D286800280DD04FF0E4
:1028C000FF3108F0F9FE0648C0222146FEF72BF83A
:1028D0002868BDE8704008F04CBF70BDF0000024CF
:1028E0009C1402242DE9F0410B4D07460E46286842
:1028F00000280ED04FF0FF3108F0DEFE074CC4E98F
:10290000007607F0C0FE20612868BDE8F04108F0BD
:1029100030BFBDE8F0810000F000002488140224DC
:1029200070B5040011D0094D286800280DD04FF073
:10293000FF3108F0C1FE0648A0222146FDF7F3FF53
:102940002868BDE8704008F014BF70BDF000002496
:10295000EC15022470B5040011D0094D2868002838
:102960000DD04FF0FF3108F0A7FE06484422214663
:10297000FDF7D9FF2868BDE8704008F0FABE70BDC9
:10298000F00000245C15022470B5040011D0094D3C
:10299000286800280DD04FF0FF3108F08DFE064862
:1029A00018222146FDF7BFFF2868BDE8704008F0F7
:1029B000E0BE70BDF00000248C16022470B5040047
:1029C00011D0094D286800280DD04FF0FF3108F0D4
:1029D00073FE064814222146FDF7A5FF2868BDE8CE
:1029E000704008F0C6BE70BDF0000024B815022487
:1029F00070B5040011D0094D286800280DD04FF0A3
:102A0000FF3108F059FE064820222146FDF78BFFD2
:102A10002868BDE8704008F0ACBE70BDF00000242E
:102A2000CC15022408480122102110B502F076FBD3
:102A300001220648114602F071FB0548012240219F
:102A400002F06CFB002010BD000002580008025884
:102A500000100258002070477047FEE7014801F05F
:102A6000A3BB000088050024014801F09DBB0000C5
:102A700000060024014801F097BB000078060024FE
:102A8000014801F091BB0000F0060024014801F06C
:102A90008BBB000068010024294A016891423AD0AA
:102AA000274A1832914236D0254A3032914232D0EC
:102AB000234A483291422ED0214A603291422AD094
:102AC0001F4A7832914226D01D4A9032914222D03C
:102AD0001B4AA83291421ED01A4A91421BD0194A71
:102AE0001832914217D0174A3032914213D0154A0A
:102AF000483291420FD0134A603291420BD0114AB2
:102B00007832914207D00F4A9032914203D00D4A59
:102B1000A832914211D1CAB21823103AB2FBF3F293
:102B20006FF30901032A02F00703074AD25CC2656A
:102B300000D9091D81650846704721F0FF01F9E7BA
:102B4000100002401004024028DB000830B5224A81
:102B5000012301689142CAB21BD01F4C1434A14218
:102B600017D01D4C2834A14213D01B4C3C34A14239
:102B70000FD0194C5034A1420BD0174C6434A142F1
:102B800007D0154C7834A14203D0134C8C34A142A9
:102B90000CD11421114C083AB2FBF1F10F4A8032EA
:102BA00001F01F0504EB8101AB4010E00C4D18242F
:102BB000103A0D44B2FBF4F1A82D00D80831094AAF
:102BC00001F01F0402EB8101064AA340803260300D
:102BD00080E80E0030BD000008540258005802582A
:102BE000F0FBFDBF0008024010B50279531E072B11
:102BF0002DD8174C0168A1421BD0154C1434A142AA
:102C000017D0134C2834A14213D0114C3C34A142AC
:102C10000FD00F4C5034A1420BD00D4C6434A14264
:102C200007D00B4C7834A14203D0094C8C34A1421C
:102C300003D10849074C443102E00749064C4431AE
:102C400004EB8202C0E91B2101219940416710BDBC
:102C500008540258FC580258FC08024010B5836919
:102C60004FF0C074826A0146002053B1B3F5005F93
:102C700015D072B1012A0CD0022A0AD0032A09D138
:102C800004E01AB1012A06D0022A03D1C96AC90197
:102C900000D5012010BDC96AA142FAD010BD002A9A
:102CA000F7D0012AF2D0022AF3D0032AF3D010BDC4
:102CB0002DE9F04F804E804FDFF8FC911836DFF899
:102CC000F8A148370468856D0AF1300ADFF8ECB1E5
:102CD0004C45DFF8ECC1DFF8ECE16DD0B4426BD0CD
:102CE000544569D0BC4267D0DFF8D081A8F11808FC
:102CF000444561D05C455FD064455DD074455BD090
:102D0000DFF8C481444557D0DFF8BC8108F11808CA
:102D1000444551D0DFF8B08108F1300844454BD02C
:102D2000DFF8A48108F14808444545D0DFF89881D0
:102D300008F1600844453FD0DFF88C8108F178083D
:102D4000444539D0DFF8808108F19008444533D0FC
:102D5000DFF8748108F1A80844452DD0DFF86C81B4
:102D6000444529D0DFF8648108F11408444523D094
:102D7000DFF8588108F1280844451DD0DFF84C8160
:102D800008F13C08444517D0DFF8408108F15008AD
:102D9000444511D0DFF8348108F1640844450BD074
:102DA000DFF8288108F17808444505D0DFF81C8158
:102DB00008F18C08444509D1D0E91948C4F80480C9
:102DC000C46E1CB1D0E91C48C4F8048004684C45AA
:102DD0002ED0B4422CD054452AD0BC4228D0374EF5
:102DE000183EB44224D05C4522D0644520D07445BE
:102DF0001ED0354EB4421BD0334E1836B44217D0D5
:102E0000314E3036B44213D02F4E4836B4420FD034
:102E10002D4E6036B4420BD02B4E7836B44207D0DC
:102E2000294E9036B44203D0274EA836B44215D16D
:102E300090F85C603F2406F01F06B440AC60046864
:102E4000256825F4802525602EE09A600068C16021
:102E5000BDE8F08F99600068C260F9E71B4EB4428C
:102E60001BD01A4E1436B44217D0184E2836B4422E
:102E700013D0164E3C36B4420FD0144E5036B442E6
:102E80000BD0124E6436B44207D0104E7836B4429E
:102E900003D00E4E8C36B442DAD190F85C60012437
:102EA00006F01F06B4406C60046863608368402BC2
:102EB0000368CFD1C9E7000010000240880002403B
:102EC000A0000240B800024010040240085402581A
:102ED000704772B6FEE700000548054908390268E8
:102EE00042F00202026008688004FCD570470000CE
:102EF0000C48025870477047704770477047000091
:102F00002DE9F0470F4690F850109AB00446012979
:102F10004FF0000915D00026DFF8F880012084F872
:102F2000500015961696216841450ED13A4D0095F0
:102F3000284605F0FFF88246206805F0FBF860B1EE
:102F40000EE002201AB0BDE8F087606D84F8506092
:102F500040F0200060650120F4E7BAF1000F09D0CD
:102F6000616D4FF0010941F020006065484684F82A
:102F70005060E7E720684146884201D0A84201D16D
:102F8000264800E0264840F61F72D7F800C0254BBF
:102F9000BCF1000F23D0D0F808C0D7F804802CF47F
:102FA000404C4CEA080CC0F808C0D4F800C08C456E
:102FB00001D0AC4507D18968AB6801F0010103F08D
:102FC0000103194302E0996801F001010029CDD104
:102FD000BD683968836829439343194317E08768BC
:102FE00027F44047876027688F4201D0AF4207D15E
:102FF0008968AB6801F0010103F00103194302E0A5
:10300000996801F001010029B0D181689143816084
:10301000ACE70000002002400021024000230240F3
:1030200000630258006002582DE9F84F0446EB4E49
:103030000020DFF8ACB30090002794F850000D4654
:10304000DFF8A0A3012808D04FF0010984F85090C0
:10305000206805F06BF818B171E10220BDE8F88F27
:10306000286800280EDB21680303CA6928D090FA7B
:10307000A0F0B0FA80F000BF00F01F0309FA03F0DF
:103080000243CA61D5E900124FF00C0C20681F23DF
:10309000C1F384610CEA921C02F01F026044934069
:1030A0009140026B9A430A430263206805F03EF8A0
:1030B0008046206805F036F858EA000003D08DE01D
:1030C000C0F38460D8E72A68042320684FF0070C17
:1030D000A96803EAD25318444369C2F304520CFAB4
:1030E00002FC914023EA0C030B434361BE4909688B
:1030F000B9EB117F06D121686869C968C1F3820103
:10310000490008E02068C168C906C1686869F5D54A
:1031100001F0100149088840296904292ED023684C
:103120002A6803EB810102F0F8420B6E024303F0C0
:10313000004010430866697E22682869012917D07B
:103140005FF0000102EB8000026E22F000420A43B1
:103150000266297E20682A6901290CD000210369B2
:1031600002F01F02914023F4F0420A43026135E06D
:103170004FF00041E6E74FF40061F0E7206829785E
:10318000026E02F0F842B2EB816F03D1016E21F0C2
:103190000041016620682978426E02F0F842B2EBE5
:1031A000816F03D1416E21F000414166206829788A
:1031B000826E02F0F842B2EB816F03D1816E21F092
:1031C0000041816620682978C26E02F0F842B2EBB5
:1031D000816F03D1C16E21F00041C1662068816812
:1031E00011F0010F72D150F8C03F2A7BDFF8FCC10B
:1031F000296802F018022CFA02FCC1F3130823EA32
:1032000008030CEA010C43EA0C030360E968594522
:103210006CD177482268DFF8DCC1DFF8DCB182428C
:10322000DFF8D8E17648774BDFF8DC8122D12968D6
:10323000614524D0B1EB4C0C38D0A1F1496CBCF104
:10324000080C35D0A1F1865CBCF1100C32D0DFF84F
:10325000BCC1614528D071453AD0814230D09942F5
:1032600032D06B48814201D16A4831E041452ED1CC
:1032700069482DE0B2422AD12968614501D1012077
:1032800026E0A1F1066CBCF1040C0FD0A1F1496C51
:10329000BCF1080C0CD0A1F1865CBCF1100C09D07B
:1032A000DFF868C1614507D15C4811E058460FE07E
:1032B0005B480DE05B480BE0714509D0814201D1CC
:1032C000184605E09942D1D1574801E03CE0002082
:1032D000D16903031AD090FAA0F0B0FA80F000BFD1
:1032E00000F01F0309FA03F00143D161D5F800C0D3
:1032F000BCF1000F28DA3E4B20684C49DFF83091D2
:10330000984201D0B04203D10A4602E0800EE7E7BE
:103310004A469268984202F0E07201D0B04209D168
:103320009D68D6F8088005F0010508F0010845EA17
:10333000080503E0DAF8085005F001054DB1606DAD
:10334000012740F020006065002084F850003846D6
:1033500084E6384DAC451CD115021AD45045F3D142
:10336000984202D0B04200D049468B6842F4000037
:1033700023F0E07202438A6030492F480968B1FBAC
:10338000F0F04000801C00E0401E00900028FBD1BF
:10339000DAE72B4DAC450CD1D5010AD45045D3D139
:1033A000984202D0B04200D049468B6842F080700B
:1033B0000EE0244DAC45C7D15502C5D45045C3D10C
:1033C000984202D0B04200D049468B6842F4800057
:1033D00023F0E07202438A60B6E700000021024059
:1033E0000000FF47006002580010005CFFFF0F0064
:1033F0000020024002003004400020190004002A8E
:103400000008302E001060320000844B2000F014C1
:1034100000002143000052470000B84F0002B025D1
:103420008000501D000180210020903600230240C2
:1034300000630258000084CB400D030010000024FC
:10344000000052C70000B8CF0449884205D10448A3
:103450000068002801D008F029BA70470401002450
:10346000B4000024704700000349884203D1034898
:103470000168491C0160704704010024FC0000241D
:10348000406D70472DE9F05F0446006806684568A6
:10349000DFF87082DFF870B2DFF87092404501D03B
:1034A000484501D1584600E09948806800F01F0760
:1034B000B0070ED5A8070CD5606DC00603D4606DAB
:1034C00040F4006060652046FFF714FD216802208B
:1034D0000860700701D5680703D4300737D528077F
:1034E00035D5606DC00603D4606D40F40070606532
:1034F000206804F023FE20B32068484501D14246ED
:1035000000E00246824208D03FB1052F05D0092FC6
:1035100003D0484503D1414602E0C16801E00146BD
:10352000C96889040DD4016809070AD504F0FEFDB5
:1035300058B3606D40F010006065A06D40F0010070
:10354000A0652046FFF780FF21680C200860B006C8
:1035500001D5A80603D4700658D5680656D5606D07
:10356000C00603D4606D40F4005060652068C16CF3
:1035700011F4C07F1AD000218A4604F0DFFD024614
:103580002068484514D1434613E02068416821F083
:103590000C014160606D20F480706065606DC00456
:1035A000CFD4606D40F001006065CAE70121E3E718
:1035B0000346834208D03FB1062F05D0072F03D022
:1035C000484503D1414602E0C16801E00146C968AF
:1035D000BAF1000F14D08B0102D58AB18A040FD43E
:1035E000026852060CD589020AD404F09BFDE8B3A8
:1035F000606D40F010006065A06D40F00100A065B6
:103600002046FFF778FC21686020086030060BD563
:10361000280609D5606D40F480306065204600F0D2
:103620008DF9216880200860F0050CD5E8050AD5E1
:10363000606D40F4003060652046FFF75EFC216855
:103640004FF480700860B0050CD5A8050AD5606DF0
:1036500040F4802060652046FFF750FC21684FF45D
:1036600000700860F00631D5E80600E00AE02DD5CC
:10367000206BE8B12068EFB3404501D0484512D136
:10368000584611E02068416821F060014160606D9A
:1036900020F480506065606DC005B1D4606D40F06D
:1036A00001006065ACE71A48806800F4404050B102
:1036B000606D40F480606065A06D40F00200A06520
:1036C0002046FFF7D1FE216810200860700517D54D
:1036D000680515D5616D4FF4806041F480416165E6
:1036E000A16D41F00801A165216808602046BDE890
:1036F000F05F00E001E0FFF7FFBBC0688007D6E79E
:10370000BDE8F09F0020024000230240002102405B
:1037100000630258F8B54FF00006040035460096E5
:1037200002D0606D10B107E00120F8BD204600F026
:1037300007F9A66584F8506020688168C1F340717C
:1037400019B18168704A1140816020688168C1F3B5
:10375000007181B981686D4A114041F080518160EA
:103760006C496B480968B1FBF0F0401C00E0401E5A
:1037700000900028FBD120688168C1F3007141B935
:10378000616D012541F010016165A16D41F00101FC
:10379000A16504F0CBFC616DC90600D420B1606D59
:1037A000012540F0100093E0606D20F4807040F03F
:1037B000020060652068816811F0010F1FD1564A30
:1037C000564B904201D0984207D191689E6801F013
:1037D000010106F00106314303E05149896801F017
:1037E000010161B9904201D0984201D14D4800E0F9
:1037F0004D488268616822F47C120A43826001F0BD
:1038000093FC41F20301884202D9A06810280CD031
:10381000617D227FA368206B490341EA024118437E
:103820000843217F01290CD010E0607D227F216BAD
:10383000400340EA024241F01000104340F00C0007
:10384000EFE7218C394A02EB41410843616A29B113
:10385000A26A01F47871014342EA01002168344B05
:10386000CA681A400243CA60206804F05FFC06463A
:10387000206804F057FC30431DD1216844F2030353
:10388000267DE26AC86842EA863298431043C860DF
:1038900094F8380001281ED02068016921F0010148
:1038A00001612068626B016921F07041114301617F
:1038B0002046FEF7CBFBE068012820681CD0016B96
:1038C00021F00F010163606D20F0020040F0010063
:1038D00060652846F8BD2068A28F164FD4E9101CF9
:1038E000154E07EB0247A36C026941EA0C013B430A
:1038F000324019431143D3E7A269016B521E21F0F4
:103900000F011143DEE70000C0FFFF5FC0FFFF7F34
:10391000400D03001000002400200240002102405E
:103920000060025800230240006302580000FEFFBE
:1039300003C0F0FF0100FFFF1EF800FC704700000D
:10394000F0B5B7B00646142130A8FDF726F8C0211F
:103950006846FDF722F834493068884262D1022077
:103960004FF0200C0D240022CDE90340C0272992FE
:1039700005900123CDE908C2CDE906074FF40021E7
:1039800015468DE80E00684602F072F908B1FFF79F
:10399000A0FA2648016841F020010160006823492F
:1039A00000F0200035900831086840F00100086000
:1039B000086800F001003590086840F004000860D5
:1039C000086830A9032400F004003590402081E805
:1039D0003100174801F08CFA30A9102081E831003D
:1039E000144801F085FA144C09211448021584E8A2
:1039F0002300C3146361D7002046C4E90352C4E91D
:103A000006752562656200F043FF08B1FFF761FAB1
:103A1000F46400220521A663122001F06FFD12203C
:103A200001F05EFD37B0F0BD00200240D8440258DE
:103A3000000002580008025868010024700002408B
:103A40002DE9F047384E044600689146DFF8DC80E7
:103A50008A46B04201D0404501D1354900E03549A0
:103A6000896801F01F0504F061FB002859D194F822
:103A70005000012855D001204FF0000784F8500075
:103A800025B1052D02D0092D00D003E02046FEF718
:103A900051FC18B184F85070BDE8F087616D40F6B4
:103AA000016320689943404541F48071616500D00D
:103AB0000646864200D01DB9606D20F48010606516
:103AC000606DC00404D5A06D20F00600A06500E084
:103AD000A7651C20E16C184ACA63E26C174911649F
:103AE000E26C1749D1642168086084F8507020683E
:103AF000416841F0100141602068E16AC26822F02B
:103B000003020A43C26021684B46E06C52464031D2
:103B100001F0A0F821680B4B8A681A40121D8A60D8
:103B2000BAE70220B8E7000000200240002102406E
:103B3000002302400063025839220008BB2200081B
:103B4000A1220008C0FFFF7F70B5044690F8500026
:103B5000012809D0012084F8500003212046FEF7F7
:103B6000F9FA050002D027E0022070BD2068C16884
:103B700021F00301C160E06C90F83510022907D1F3
:103B800000F020F8050003D0606D40F04000606553
:103B90002068416821F010014160204615B1FEF710
:103BA00091FB09E0FEF78EFB050005D1606D20F466
:103BB000885040F001006065002084F850002846DD
:103BC00070BD00002DE9F84F044601F0B3FA0090F3
:103BD0003CB194F83500022806D0802161650020B0
:103BE000E4E00120BDE8F88FC74DC74EC64918353F
:103BF00020683036DFF81483DFF814938842DFF84A
:103C000014A3DFF814B32ED0A8422CD0B0422AD08F
:103C1000404528D0484526D0504524D0584522D08C
:103C2000BD4A183290421ED0BC4A90421BD0BB4ABB
:103C30001832904217D0B94A3032904213D0B74A66
:103C4000483290420FD0B54A603290420BD0B34A0E
:103C50007832904207D0B14A9032904203D0AF4AB6
:103C6000A832904209D1026822F01E020260206848
:103C7000426922F08002426103E0026822F00E02F3
:103C8000026027688F4238464DD0A8424BD0B042E0
:103C900049D0404547D0484545D0504543D0584588
:103CA00041D09D4A183290423DD09C4A90423AD031
:103CB0009A4A1832904236D0984A3032904232D0E6
:103CC000964A483290422ED0944A603290422AD08E
:103CD000924A7832904226D0904A9032904222D036
:103CE0008E4AA83290421ED08D4A90421BD08C4AF8
:103CF0001432904217D08A4A2832904213D0884A10
:103D00003C3290420FD0864A503290420BD0844AC7
:103D10006432904207D0824A7832904203D0804A7F
:103D20008C32974204D1206E026822F480720260C5
:103D300075492068884228D0A84226D0B04224D0B5
:103D4000404522D0484520D050451ED058451CD073
:103D500071491831884218D07049884215D06F498E
:103D60001831884211D06D49303188420DD06B49ED
:103D70004831884209D069496031884205D0674995
:103D80007831884201D065499031016821F0010104
:103D900001600EE001F0CEF90099401A052808D91B
:103DA000202262650321002084F8351084F8340055
:103DB00017E73868C007EDD1534A012120689042C7
:103DC0002ED0A8422CD0B0422AD0404528D0484519
:103DD00026D0504524D0584522D04F4B1833984216
:103DE0001ED04E4B98421BD04C4B1833984217D0E4
:103DF0004A4B3033984213D0484B483398420FD047
:103E0000464B603398420BD0444B7833984207D0EE
:103E1000424B9033984203D0404BA833984208D18C
:103E200094F85C703F23A06D07F01F07BB408360D0
:103E300007E094F85C30A06D03F01F0301FA03F370
:103E40004360206890424DD0A8424BD0B04249D048
:103E5000404547D0484545D0504543D0584541D0CE
:103E60002D4A183290423DD02C4A90423AD02B4AEB
:103E70001832904236D0294A3032904232D0274A06
:103E8000483290422ED0254A603290422AD0234AAE
:103E90007832904226D0214A9032904222D01F4A56
:103EA000A83290421ED01E4A90421BD01C4A1432A7
:103EB000904217D01A4A2832904213D0184A3C3206
:103EC00090420FD0164A503290420BD0144A6432BE
:103ED000904207D0124A7832904203D0104A8C3276
:103EE00090420BD1D4E919024260E06E30B1026811
:103EF00022F480720260D4E91C024260002084F83F
:103F0000351084F834006DE610000240580002407D
:103F10007000024088000240A000024010040240ED
:103F2000085402582DE9F05F28B190F835100229A5
:103F300004D0802141650120BDE8F09F904C904B5A
:103F40000168183C18338E4ADFF83C92A1428D4C30
:103F5000DFF838E28E4FDFF83CB2DFF83CA28F4D3D
:103F60008F4E31D091422FD099422DD0A1422BD0EB
:103F7000494529D0714527D0B94225D0DFF810C274
:103F80000CF1180C61451FD0DFF808C2ACF1600CD1
:103F9000614519D0DFF8FCC1ACF1480C614513D084
:103FA000DFF8F0C1ACF1300C61450DD0DFF8E4C1B1
:103FB000ACF1180C614507D0594505D0514503D0E7
:103FC000A94201D0B1422CD1DFF8B4C14FF00408AE
:103FD00080F83580ACF1180C61451DD091421BD0A2
:103FE000994219D0A14217D0494515D0714513D037
:103FF000B94211D06648183081420DD0654860380A
:10400000814209D063484838814205D06148303840
:10401000814201D05F481838086820F0010008602C
:10402000ABE0D1F800C02CF00E08DFF854C1C1F8A5
:104030000080ACF1180C0168614527D0914225D071
:10404000994223D0A14221D049451FD071451DD0AE
:10405000B9421BD0DFF838C10CF1180C614515D0FE
:10406000DFF830C1ACF1600C61450FD0DFF824C13E
:10407000ACF1480C614509D0DFF818C1ACF1300C47
:10408000614503D0DFF80CC1ACF1180CD1F800C0C9
:104090002CF0010CC1F800C0DFF8E4804FF0010CF7
:1040A0000168A8F11808414546D0914244D0994290
:1040B00042D0A14240D049453ED071453CD0B942A2
:1040C0003AD0334A1832914236D0324A603A91425D
:1040D00032D0304A483A91422ED02E4A303A91425C
:1040E0002AD02C4A183A914226D0594524D051451D
:1040F00022D0A94220D0B1421ED02A4A91421BD0E0
:10410000284A1432914217D0264A2832914213D0BD
:10411000244A3C3291420FD0224A503291420BD075
:10412000204A6432914207D01E4A7832914203D02D
:104130001C4A8C32914218D1016E0A6822F48072B6
:104140000A6090F85C20816D02F01F020CFA02F206
:104150004A60D0E919124A60C16E31B10A6822F48E
:1041600080720A60D0E91C124A600022016D80F85A
:1041700035C080F8342001B188470020DCE600001B
:1041800028000240580002407000024088000240AF
:10419000A00002407004024088040240A0040240D3
:1041A000B8040240085402582DE9FC5F0446F74E5B
:1041B0000020DFF8D88300904FF41652F44808F13D
:1041C0001808A56DDFF8C493DFF8C0A3016809F1F2
:1041D000300920680AF1480AB1FBF2F1B0420191BE
:1041E0002F68D5F800C0DFF8ACB335D0414688421F
:1041F00032D0484530D050452ED058452CD0E549D6
:104200001831884228D0E3493031884224D0E1492E
:104210004831884220D0E04988421DD0DE4918311B
:10422000884219D0DC493031884215D0DA4948310A
:10423000884211D0DFF860E30EF1600E70450BD0BC
:10424000D54A7832904207D0D34B9033984203D06E
:10425000D149A83188427DD194F85C20082102F030
:104260001F0201FA02F23A424AD0B04232D040452F
:1042700030D048452ED050452CD058452AD0C54A7C
:104280001832904226D0C34A3032904222D0C14ADE
:10429000483290421ED0C04A90421BD0BE4A1832CB
:1042A000904217D0BC4A3032904213D0BA4A4832BA
:1042B00090420FD0B84A603290420BD0B64A783262
:1042C000904207D0B44A9032904203D0B24AA8320A
:1042D000904203D1026802F0040202E0026802F098
:1042E00008026AB1026822F00402026094F85C00DD
:1042F00000F01F008140A960606D40F00100606522
:1043000094F85C00012100F01F008140394240D048
:104310002068B04234D0404532D0484530D0504576
:104320002ED058452CD09B4A1832904228D0994A1A
:104330003032904224D0974A4832904220D0964A58
:1043400090421DD0944A1832904219D0924A30328D
:10435000904200E0AFE113D08F4A483290420FD034
:104360008D4A603290420BD08B4A7832904207D00F
:10437000894A9032904203D0874AA83290427DD138
:10438000406910F0800F04D0A960606D40F0020019
:10439000606594F85C00042100F01F008140394200
:1043A0003ED02068B04232D0404530D048452ED073
:1043B00050452CD058452AD0764A1832904226D003
:1043C000744A3032904222D0724A483290421ED013
:1043D000714A90421BD0704A1832904217D06E4AF0
:1043E0003032904213D06C4A483290420FD06A4A21
:1043F000603290420BD0684A7832904207D0664AC9
:104400009032904203D0644AA83290424ED1006864
:1044100010F0020F04D0A960606D40F004006065E8
:1044200094F85C00102100F01F008140394258D000
:104430002068B04234D0404532D0484530D0504555
:104440002ED058452CD0534A1832904228D0514A89
:104450003032904224D04F4A4832904220D04E4AC7
:1044600090421DD04C4A1832904219D04A4A3032FC
:10447000904215D0484A4832904200E014E00FD0F4
:10448000454A603290420BD0434A7832904207D07E
:10449000414A9032904203D03F4AA832904207D11D
:1044A000006800F0080006E0006872E70068B7E7FF
:1044B000006800F00400A0B1A96020680168490309
:1044C00004D50068000308D5A16C07E00168C905A0
:1044D00003D4016821F008010160216C09B1204674
:1044E000884794F85C00202100F01F008140394289
:1044F00079D02068B04232D0404530D048452ED0E7
:1045000050452CD058452AD0224A1832904226D005
:10451000204A3032904222D01E4A483290421ED069
:104520001D4A90421BD01C4A1832904217D01A4A9A
:104530003032904213D0184A483290420FD0164A77
:10454000603290420BD0144A7832904207D0124A1F
:104550009032904203D0104AA832904203D10068B2
:1045600000F0100002E0006800F00200B0B3A960A3
:1045700094F835000428206801680FD049037ED5DF
:10458000006800032BD4616C2AE000001000024098
:1045900010000024700002401004024021F01601B7
:1045A00001602068416921F080014161206C08B9F7
:1045B000A06C20B12068016821F00801016094F826
:1045C0005C303F21012003F01F0300229940A960C5
:1045D00084F8350084F83420216D65E003E0E16B58
:1045E00009B120468847606D00287DD0606DC00706
:1045F00059D02068042184F83510B0422BD04045B2
:1046000029D0484527D0504525D0584523D09D492D
:10461000884220D09B49183188421CD099493031BA
:10462000884218D09849884215D097491831884255
:1046300011D09549303188420DD093494831884294
:1046400009D091496031884205D08F49783188423C
:1046500001D08D499031016821F00101016020688D
:104660000099019A491C0091914202D80168C9073A
:10467000F6D10068C00710D003200FE0FFE7016803
:10468000C905ACD403680121002223F010030360A4
:1046900084F8351084F83420A1E7012084F835002F
:1046A000002084F83400E16C00291DD002B02046BF
:1046B000BDE8F05F0847754988421DD07349143141
:1046C000884219D071492831884215D06F493C3150
:1046D000884211D06D49503188420DD06B49643108
:1046E000884209D0694900E084E07831884203D0EB
:1046F00066498C3188427DD194F85C80042701683A
:1047000008F01F0807FA08F717EA0C0F009746D0C1
:104710004F0744D500980F04686003D5C8033CD404
:10472000A16CC1E7880638D42068B0422DD0554925
:104730006039884229D0484527D0504525D0584572
:1047400023D05049884220D04E49183188421CD08D
:104750004C493031884218D04B49884215D04A49DB
:104760001831884211D04849303188420DD046492D
:104770004831884209D0704507D0904205D0984210
:1047800003D04149A831884203D1016821F00801D2
:1047900002E0016821F004010160216C84E7022736
:1047A00007FA08F717EA0C0F00974ED08F074CD581
:1047B00000980F04686003D5C80344D4616C73E7A4
:1047C000880640D42068B0422FD02E4960398842F4
:1047D0002BD0484529D0504527D0584525D02949C8
:1047E000884222D02749183188421ED025493031CD
:1047F000884200E044E018D02349884215D022497D
:104800001831884211D02049303188420DD01E49DC
:104810004831884209D0704507D0904205D098426F
:1048200003D01949A831884203D1016821F014014D
:1048300002E0016821F00A010160012184F83510CD
:10484000002084F83400E16B2EE7082202FA08F217
:1048500012EA0C0F14D0090712D5016821F00E01DD
:10486000016094F85C100120002201F01F0100FAA1
:1048700001F16960606584F8350084F8342012E73E
:10488000BDE8FC9F88000240100402400854025812
:104890002DE9F05F044600F04DFC002C07467DD06A
:1048A000E34E022120684FF00308DFF888934FF0B1
:1048B0000005DFF884A3B042DFF880B334D0DC4ACF
:1048C0001832904230D048452ED050452CD0584513
:1048D0002AD0DA4A1832904226D0D84A3032904252
:1048E00022D0D64A483290421ED0D54A90421BD0A0
:1048F000D34A1832904217D0D14A3032904213D066
:10490000CF4A483290420FD0CD4A603290420BD00D
:10491000CB4A7832904207D0C94A9032904203D0B5
:10492000C74AA83290427DD184F83510B04284F84D
:1049300034502ED0BE49183188422AD0484528D05C
:10494000504526D0584524D0BC491831884220D043
:10495000BA49303188421CD0B8494831884218D011
:10496000B749884215D0B6491831884211D0B449A8
:10497000303188420DD0B2494831884209D0B0491F
:104980006031884205D0AE497831884201D0AC49C7
:104990009031016821F00101016008E027E100BFCA
:1049A00000F0C8FBC01B052801D920211CE12068AC
:1049B0000068C007F4D104F108002168D4E9053C7F
:1049C0008E4685C809681043D4E907281F43636AE7
:1049D00038439C4F40EA0C001043394040EA08003D
:1049E000042B40EA010003D1D4E90B121143084320
:1049F000954909686FF30F01B1F1005F0FD361684A
:104A0000A1F12902052A08D9163A032A05D9083A3C
:104A1000012A02D94F39032901D840F48010CEF879
:104A2000000000E023E02068676A4069042F20F05E
:104A3000070047EA00070DD1D4E90A01074349B14D
:104A40002046FEF70BF928B140206065012184F86B
:104A50003510CCE0206847612046FEF71DF894F839
:104A60005C203F2102F01F029140816054E0774AB0
:104A700090421BD0754B1433984217D0734B283398
:104A8000984213D0714B3C3398420FD06F4B503348
:104A900098420BD06D4B6433984207D06B4B783300
:104AA000984203D0694B8C3398427DD184F83510FD
:104AB00084F83450664B0168A26801EA030E402A6C
:104AC00073D0802A72D00022D4E90378D4E905316A
:104AD00042EAD70242EAD8085C4AD4E9077C48EAAD
:104AE000D30848EAD10141EAD701524241EA1C11F8
:104AF000142341EA0E01016020681044B0FBF3F07A
:104B00008000E0652046FDF7C7FF94F85C20012196
:104B100002F01F02914041602068B04257D04449E2
:104B20001831884253D0484551D050454FD0584550
:104B30004DD042491831884249D0404930318842ED
:104B400045D03E494831884241D03D4988423ED017
:104B50003B49183188423AD039493031884236D001
:104B600037494831884232D03549603188422ED0A9
:104B70003349783188422AD031499031884226D051
:104B80002F49A831884222D0304988421FD02F496E
:104B9000143188421BD02D492831884217D02B4927
:104BA0003C31884213D002E01DE017E018E02749AD
:104BB000503188420BD025496431884207D02349BF
:104BC0007831884203D021498C31884229D120464E
:104BD000FDF7BCFFA06880280CD00CE0102273E722
:104BE0004FF4804270E74021616584F835800120F0
:104BF000BDE8F09F6560216E20790860D4E9190155
:104C000041606068401E072808D82046FDF7ECFF89
:104C1000E06E0560D4E91C01416002E0E5662567AD
:104C200065670120656584F835000020E0E7000035
:104C30001000024040000240580002407000024054
:104C4000100402403F8010FE0010005C085402581F
:104C50000F00FEFF2DE9F84F04008C464FF00000D6
:104C6000009014D094F83400012812D094F83550F4
:104C70000120002184F83400012D0CD0C0026065B1
:104C80000120009084F834100098BDE8F88F0120CE
:104C9000FBE70220F9E78C4D0226206884F8356096
:104CA000A8428A4D61658A4E8A4FDFF82C82DFF870
:104CB0002C92DFF82CA2DFF82CB226D0A84224D008
:104CC000B04222D0B84220D040451ED048451CD02A
:104CD00050451AD0584518D08349884215D082498A
:104CE0001831884211D08049303188420DD07E4938
:104CF0004831884209D07C496031884205D07A49E0
:104D00007831884201D078499031016821F0010161
:104D1000016061462046FDF7CBFF6B492068884261
:104D20002CD0A8422AD0B04228D0B84226D0404544
:104D300024D0484522D0504520D058451ED06A4A3C
:104D400090421BD0684A1832904217D0664A3032DF
:104D5000904213D0644A483290420FD0624A603287
:104D600090420BD0604A7832904207D05E4A90322F
:104D7000904203D05C4AA83290420CD1026822F0E3
:104D80001E0242F016020260206C88B120680268A0
:104D900042F008020BE0026822F00E0242F00A0222
:104DA0000260206C20B12068026842F004020260B8
:104DB000206888424BD0A84249D0B04247D0B84280
:104DC00045D0404543D0484541D050453FD0584557
:104DD0003DD0454A90423AD0434A1832904236D0AC
:104DE000414A3032904232D03F4A483290422ED02F
:104DF0003D4A603290422AD03B4A7832904226D0D7
:104E0000394A9032904222D0374AA83290421ED07E
:104E1000364A90421BD0354A1432904217D0334A5A
:104E20002832904213D0314A3C3290420FD02F4A60
:104E3000503290420BD02D4A6432904207D02B4A18
:104E40007832904203D0294A8C3290420DD1206EA4
:104E50000268D20303D5026842F480720260E06EF9
:104E600018B1026842F4807202602068884226D03D
:104E7000A84224D0B04222D0B84220D040451ED013
:104E800048451CD050451AD0584518D0164988427C
:104E900015D015491831884211D013493031884254
:104EA0000DD011494831884209D00F4960318842FC
:104EB00005D00D497831884201D00B499031016805
:104EC00041F001010160DFE61000024028000240CD
:104ED000400002405800024070000240880002403A
:104EE000A0000240B80002401004024008540258DA
:104EF0002DE9F84F03247D4D00234FF001094FF0B9
:104F0000B04B4FF00F0AE9E009FA03F73A4076D0C8
:104F10000E7906F00306012E01D0022E18D1D0F82A
:104F200008C04FEA430ECE6804FA0EF82CEA080CCB
:104F300006FA0EF646EA0C068660D0F804C00E7932
:104F40002CEA070CC6F300169E4046EA0C064660A3
:104F50000E79F643B6070BD0C6684FEA43088F6850
:104F600004FA08FC26EA0C0607FA08F73743C7607C
:104F70000E7906F00306022E12D1DE080F694FEA01
:104F8000437C00EB8606B646366A4FEADC6C0AFACA
:104F90000CF807FA0CF726EA08063743CEF820701B
:104FA0000F7906684FEA430807F0030704FA08FC84
:104FB00007FA08F726EA0C06374307604E6816F42E
:104FC000403F1CD04A4E376847F0020737603668CA
:104FD0009F0706F00206009623F0030606F1B0468E
:104FE000B6463F0FD6F80864DFF808810AFA07FCD6
:104FF000404526EA0C0603D14FF0000C41E06CE07E
:10500000DFF8F4C0604502D14FF0010C39E0DFF861
:10501000ECC0604502D14FF0020C32E0DFF8E0C096
:10502000604502D14FF0030C2BE0DFF8D8C060459B
:1050300002D14FF0040C24E0DFF8CCC0604502D16F
:105040004FF0050C1DE0DFF8C4C0604502D14FF001
:10505000060C16E0DFF8B8C0604502D14FF0070C2F
:105060000FE0DFF8B0C0604502D14FF0080C08E057
:10507000DFF8A4C0604502D14FF0090C01E04FF009
:105080000A0C0CFA07FC4CEA060CCEF808C44F6870
:10509000DBF80060FF0226EA020600D516435F46F1
:1050A000CBF80060D1F804C0DBF804605FEA8C2C18
:1050B00026EA020600D516437E606E684F6826EA2F
:1050C0000206BF0300D516436E602E684F6826EABD
:1050D0000206FF0300D516432E605B1C0A6832FAF5
:1050E00003F67FF411AFBDE8F88F00008000005890
:1050F000F444025800000258000402580008025804
:10510000000C0258001002580014025800180258EF
:10511000001C025800200258002402580AB1816184
:1051200070470904FBE7000001480068000C704765
:105130000010005C014880687047000004000024F3
:1051400030B590F84120202A24D190F84020012A3F
:1051500020D0012380F84030242280F841202023F1
:1051600000240268156825F00105156002681568BD
:1051700025F480551560026815680D4315600168B7
:105180000A6842F001020A6080F8413080F840402D
:10519000002030BD022030BD30B590F84120202ADB
:1051A00022D190F84020012A1ED0012380F84030FF
:1051B000242280F84120202400250268136823F06F
:1051C000010313600268136823F4706343EA01214A
:1051D000116001680A6842F001020A6080F84140EB
:1051E00080F84050002030BD022030BD70B5040072
:1051F00004D094F84100002510B106E0012070BDF4
:10520000204684F8405000F051F8242084F84100F2
:105210002068016821F001010160D4E9001020F04C
:10522000706008612068816821F400418160E06855
:1052300021680128A06830D040F404408860E0680C
:105240000228206841682BD021F400614160206869
:105250002021154A4368134343602068C26822F442
:105260000042C26054F8106B0DCC104340EA03209A
:10527000F06054F81C3CD4E900021043186054F864
:105280001C0D026842F001020260656484F841105E
:10529000256384F84250002070BD40F40040CDE703
:1052A00041F40061D2E700000080000210B5B6B002
:1052B0000446142130A8FBF770FBC0216846FBF7B9
:1052C0006CFB1849206888422AD1002021900821CF
:1052D0000446CDE90010684600F0CAFC08B1FDF7AD
:1052E000F8FD1148016841F002010160006830AB2F
:1052F000122100F002003590C020042283E8130040
:105300000A4830A9CDE93342FFF7F2FD06480830DC
:10531000016841F400110160006800F4001035904C
:1053200036B010BD00540040E0440258000402585A
:1053300002488168027811448160704704000024AB
:10534000032010B500F0FAF801F00AFB0F4A1049EB
:1053500014681368C4F3032203F00F038A5CC95C6A
:1053600002F01F0201F01F01D0400A4A20FA01F1A9
:105370001160094908600F2000F010F808B1012001
:1053800010BD00F09BF8002010BD0000184402582A
:1053900058DB0008140000241000002410B5102869
:1053A00004468AB02AD200220146762000F0A6F8F0
:1053B000762000F095F8154804601548016841F41E
:1053C00080210160006808A900F4802009906846E7
:1053D00001F052FA01F0B2FA0E49400000220E4CE0
:1053E000B0FBF1F10D4840F2E7330460C0E903324D
:1053F000491EC0E9011201F096FF10B101200AB068
:1054000010BD064801F0C2FFF9E7000008000024C3
:10541000F044025840420F00004801406807002451
:10542000154BF0B5083B427813491A600B680A1F08
:1054300023F001030B6043681360057BC67A827A10
:10544000437B2D07847B45EA0665C77B90F809C03E
:10545000067A90F800E045EAC24040EA834040EA1C
:10546000444040EA074040EA0C2040EA460040EA57
:105470000E000860F0BD0000A0ED00E0BFF35F8FFC
:10548000044800210368034A23F480330360703228
:105490001160704724ED00E0074A40F00100064922
:1054A00070321060086840F480300860BFF34F8F9E
:1054B000BFF36F8F7047000024ED00E0074882B013
:1054C000016841F002010160006800220F2100F034
:1054D00002000090901E02B000F010B8F444025890
:1054E000002809DB410900F01F028900012001F1B9
:1054F000E0219040C1F80001704700000E4BF0B46D
:105500001B680D46C3F30223C3F10706042E00D91E
:105510000426191D072901D2002300E0DB1E012407
:1055200004FA06F19C40491E2940641E994014402B
:105530002143F0BC04F09ABB0CED00E0064900F0FA
:10554000070210B54FF6FF040868044B204040EAFC
:1055500002201843086010BD0CED00E00000FA05C1
:10556000134970B50A68D243520705D5096801F09E
:105570000701814213D118E00A6822F007020243B2
:105580000A60FFF7D7FD0A4D4FF47A760446083DCE
:1055900007E000BFFFF7CEFD001BB04201D901209C
:1055A00070BD2868C0438004F4D4002070BD0000A2
:1055B0000C48025810B501F08DF905490968054AF3
:1055C000C1F30211515C01F01F01C84010BD000081
:1055D0002044025858DB00084A4930B5494C0B1D9D
:1055E0000A680C3409681D68246802F0030305F09A
:1055F0000102C1F30511C4F3CC04002914FB02F22B
:1056000000EE102AF8EE400A76D0414A9FED3E1A8D
:10561000DFED3E1AB7EE000A23B1012B5AD0022B60
:1056200018D15CE0374C283C23689B0612D5394BD7
:10563000246801EE901A1168C4F3C104F8EE612ADF
:10564000E34001EE903AC1F30801F8EE611A81EEF1
:10565000A22A07E002EE101A1168F8EE422A81EE43
:10566000A22A45E001EE901A1168F8EE611A40EEA8
:10567000811A71EE800A62EE200AC1F3462101EE22
:10568000101AB8EE411A31EE001AC0EE811ABCEEC3
:10569000E11A80ED001A1168C1F3064101EE101AFB
:1056A000B8EE411A31EE001AC0EE811ABCEEE11AD2
:1056B00080ED011A1168C1F3066101EE101AB8EE0F
:1056C000411A31EE000A80EE801ABCEEC10A80ED6C
:1056D000020A30BD01EE901ADFED0F2A03E001EE61
:1056E000901ADFED0E2A1168F8EE611A82EEA12AF7
:1056F000C1F30801B6E7FFE7002101604160816066
:1057000030BD000028440258000000390024744CC9
:10571000304402580090D0030024744A001B374BD9
:10572000494930B5484C0B1D0A68143409681D6896
:10573000246802F00303C5F30012C1F30531C4F37A
:10574000CC04002914FB02F200EE102AF8EE400A05
:1057500075D03F4A9FED3D1AB7EE000A6BB1DFED01
:105760003D1A012B01D0022B64D002EE101A1168F1
:10577000F8EE422A81EEA22A21E0334C283C23682D
:105780009B0612D5344B246801EE901A1168C4F3BD
:10579000C104F8EE612AE34001EE903AC1F308013A
:1057A000F8EE611A81EEA22A0BE001EE901ADFED0D
:1057B0002B2A00BFF8EE611A116882EEA12AC1F30C
:1057C000080101EE901A1168F8EE611A40EE811A94
:1057D00071EE800A62EE200AC1F3462101EE101A32
:1057E000B8EE411A31EE001AC0EE811ABCEEE11A91
:1057F00080ED001A1168C1F3064101EE101AB8EEEF
:10580000411A31EE001AC0EE811ABCEEE11A80EDA9
:10581000011A1168C1F3066101EE101AB8EE411ABF
:1058200031EE000A80EE801ABCEEC10A80ED020A59
:1058300030BD04E001EE901ADFED092ABAE700213D
:10584000016041608160F3E728440258000000399C
:10585000384402580024744A0090D0030024744C49
:10586000001B374B494930B5484C0B1D0A681C34A6
:1058700009681D68246802F00303C5F30022C1F320
:105880000551C4F3CC04002914FB02F200EE102AE7
:10589000F8EE400A75D03F4A9FED3D1AB7EE000A78
:1058A0006BB1DFED3D1A012B01D0022B64D002EE6B
:1058B000101A1168F8EE422A81EEA22A21E0334C38
:1058C000283C23689B0612D5344B246801EE901ABD
:1058D0001168C4F3C104F8EE612AE34001EE903A86
:1058E000C1F30801F8EE611A81EEA22A0BE001EE85
:1058F000901ADFED2B2A00BFF8EE611A116882EED4
:10590000A12AC1F3080101EE901A1168F8EE611A9C
:1059100040EE811A71EE800A62EE200AC1F3462140
:1059200001EE101AB8EE411A31EE001AC0EE811ADB
:10593000BCEEE11A80ED001A1168C1F3064101EED8
:10594000101AB8EE411A31EE001AC0EE811ABCEE00
:10595000E11A80ED011A1168C1F3066101EE101A17
:10596000B8EE411A31EE000A80EE801ABCEEC10A90
:1059700080ED020A30BD04E001EE901ADFED092A45
:10598000BAE70021016041608160F3E728440258D2
:1059900000000039404402580024744A0090D003AB
:1059A0000024744C001B374B2DE9F04FAC4A0546E0
:1059B000DFF8A8A280F48070DFF8AC9289B01311F0
:1059C000AA4C0843A748AAF104064FF0805C4FF0A8
:1059D00000582CD085F400770F4357D0DFF87CB205
:1059E00085F480670F430BF1080B61D085F40067E5
:1059F0000F4374D085F480570F436ED085F4005761
:105A00000F434FF480394FF4003E67D085F40027F0
:105A10000F4371D085F480370F436ED085F48046F4
:105A20000E436BD085F400420A4368D02AE0DAF8CE
:105A3000001001F00701052924D2DFE801F075BC50
:105A40007D25B10006A8FFF7C7FD079809B0BDE89E
:105A5000F08F6846FFF764FE0098F7E703A8FFF7AA
:105A600001FF0398F2E72068C0F3C10022FA00F0BA
:105A7000ECE72268D20571D561456FD11846E5E79C
:105A80004145E3D00020E1E74846DFE7DAF80010BF
:105A900001F4E07180294FD004DC002944D0402972
:105AA000F0D188E0C029EFD0B1F5807FEAD177E06E
:105AB000DBF8001001F46001B1F5800F3CD004DC8C
:105AC00091B3B1F5001FDDD175E0B1F5C00FDBD0AA
:105AD000B1F5000FD6D163E001E018E030E0DBF86B
